:020000040000fa
:080000000001040000000000f3
:020000040000fa
:04000800c80100002b
:020000040000fa
:04000c00c801000027
:020000040000fa
:04001000c801000023
:020000040000fa
:04001400c80100001f
:020000040000fa
:04001800c80100001b
:020000040000fa
:04001c00c801000017
:020000040000fa
:04002000c801000013
:020000040000fa
:04002400c80100000f
:020000040000fa
:04002800c80100000b
:020000040000fa
:04002c00c801000007
:020000040000fa
:04003000c801000003
:020000040000fa
:04003400c8010000ff
:020000040000fa
:04003800c8010000fb
:020000040000fa
:04003c00c8010000f7
:020000040000fa
:04004000c8010000f3
:020000040000fa
:04004400c8010000ef
:020000040000fa
:04004800c8010000eb
:020000040000fa
:04004c00c8010000e7
:020000040000fa
:04005000c8010000e3
:020000040000fa
:04005400c8010000df
:020000040000fa
:04005800c8010000db
:020000040000fa
:04005c00c8010000d7
:020000040000fa
:04006000c8010000d3
:020000040000fa
:04006400c8010000cf
:020000040000fa
:04006800c8010000cb
:020000040000fa
:04006c00c8010000c7
:020000040000fa
:04007000c8010000c3
:020000040000fa
:04007400c8010000bf
:020000040000fa
:04007800c8010000bb
:020000040000fa
:04007c00c8010000b7
:020000040000fa
:04008000c8010000b3
:020000040000fa
:04008400c8010000af
:020000040000fa
:04008800c8010000ab
:020000040000fa
:04008c00c8010000a7
:020000040000fa
:04009000c8010000a3
:020000040000fa
:04009400c80100009f
:020000040000fa
:04009800c80100009b
:020000040000fa
:04009c00c801000097
:020000040000fa
:0400a000c801000093
:020000040000fa
:0400a400c80100008f
:020000040000fa
:0400a800c80100008b
:020000040000fa
:0400ac00c801000087
:020000040000fa
:0400b000c801000083
:020000040000fa
:0400b400c80100007f
:020000040000fa
:0400b800c80100007b
:020000040000fa
:0400bc00c801000077
:020000040000fa
:0400c000c801000073
:020000040000fa
:0400c400c80100006f
:020000040000fa
:0400c800c80100006b
:020000040000fa
:0400cc00c801000067
:020000040000fa
:0400d000c801000063
:020000040000fa
:0400d400c80100005f
:020000040000fa
:0400d800c80100005b
:020000040000fa
:04010800c80100002a
:020000040000fa
:04010c00c801000026
:020000040000fa
:04011000c801000022
:020000040000fa
:04011400c80100001e
:020000040000fa
:04011800c80100001a
:020000040000fa
:04011c00c801000016
:020000040000fa
:04012000c801000012
:020000040000fa
:04012400c80100000e
:020000040000fa
:04012800c80100000a
:020000040000fa
:04012c00c801000006
:020000040000fa
:04013000c801000002
:020000040000fa
:04013400c8010000fe
:020000040000fa
:04013800c8010000fa
:020000040000fa
:04013c00c8010000f6
:020000040000fa
:04014000c8010000f2
:020000040000fa
:04014400c8010000ee
:020000040000fa
:04014800c8010000ea
:020000040000fa
:04014c00c8010000e6
:020000040000fa
:04015000c8010000e2
:020000040000fa
:04015400c8010000de
:020000040000fa
:04015800c8010000da
:020000040000fa
:04015c00c8010000d6
:020000040000fa
:04016000c8010000d2
:020000040000fa
:04016400c8010000ce
:020000040000fa
:04016800c8010000ca
:020000040000fa
:04016c00c8010000c6
:020000040000fa
:04017000c8010000c2
:020000040000fa
:04017400c8010000be
:020000040000fa
:04017800c8010000ba
:020000040000fa
:04017c00c8010000b6
:020000040000fa
:04018000c8010000b2
:020000040000fa
:04018400c8010000ae
:020000040000fa
:04018800c8010000aa
:020000040000fa
:04018c00c8010000a6
:020000040000fa
:04019000c8010000a2
:020000040000fa
:04019400c80100009e
:020000040000fa
:04019800c80100009a
:020000040000fa
:04019c00c801000096
:020000040000fa
:0401a000c801000092
:020000040000fa
:0401a400c80100008e
:020000040000fa
:0401a800c80100008a
:020000040000fa
:0401ac00c801000086
:020000040000fa
:0401b000c801000082
:020000040000fa
:0401b400c80100007e
:020000040000fa
:0401b800c80100007a
:020000040000fa
:0401bc00c801000076
:020000040000fa
:0401c000c801000072
:020000040000fa
:0401c400c80100006e
:020000040000fa
:0401c800c80100006a
:020000040000fa
:0401cc00c801000066
:020000040000fa
:0401d000c801000062
:020000040000fa
:0401d400c80100005e
:020000040000fa
:0401d800c80100005a
:020000040000fa
:10020000cf8520000eff20000e01880000000000b6
:10021000000020000000e000020032000001200089
:1002200020028800140007005b0007000000e000c7
:1002300003003a00407f2000010020000200370048
:100240000000200001002000810f7000010032003a
:1002500014000700000020000000e000020032004f
:100260000000020000000000c007020000000000c3
:100270000040da000000fe004440a900a000200079
:100280000000e0000300320000002000a001880010
:100290004440a800000006008a1f78008b1f7800e9
:1002a0000000060091018800800478000000eb0047
:1002b0001a003700e284440032a0b4009905ba0065
:1002c000e284440032a0b4009906ba00e2844400fb
:1002d00032a0b4000006eb00476fde00fd07b2005d
:1002e000636ce10003003a00ebff07000000eb0045
:1002f0000a003700606ce10004003a00005deb008a
:100300008b05e900fdff3e00040037006168e10055
:10031000010032000086eb000b00070019c7ba008d
:100320001905ba000e04e00003003a000a00e000dc
:10033000e0ff3a0000000600fe07b2009e018800c0
:100340008a047800f5ff3700395dba008b05e900b3
:100350000c003200295dba008b05e900080032006c
:100360000c00e00003003a00e284440032a0b40034
:10037000f5ff370019ddba008b05e900faff3a00f6
:100380008904e800e184440032a0b40000000600c3
:100390000040da000000fe00000005006022b80006
:1003a000060220000000d0008180d2000482d2002a
:1003b0008582d2000000a0000202520083825a000f
:1003c000030031000202420083824a000000a100c3
:1003d0000603e900f3ff3a0000000600efff070004
:0803e0000400be00000006004d
:020000040000fa
:1003e80072610000646900006f20000074780000ea
:0403f80020000000e1
:020000040000fa
:1003fc000200fa00000f78001e0078001040780010
:10040c000000fb004400dd00804078001e00e80086
:10041c00104078006f40600000c0400056e8b70004
:10042c001e80e800104078000000fb004400dd0056
:10043c00804078001e017800630041001040780075
:10044c006f40600000c0400057e8b7009e00780085
:10045c0064804000104078000000fb004400dd0088
:10046c00804078001e017800650041001040780043
:10047c006f40600000c0400058e8b7006c020700f5
:10048c0000cdb300a10207000040eb009f02070063
:10049c0058c8bf009d02070057c8bf009b02070049
:1004ac0056c8bf00990207006c0207000080fa00d2
:1004bc00000006000400fa00100798000040eb0052
:1004cc00004f78000a0037001e80fb009e00900051
:1004dc00008040009e80fb001e01900081004100c6
:1004ec0091407800efc06000014878001e4fe80092
:1004fc001e407800e64f5000f3ff36001e009000bf
:10050c001040780080407800400020008008dd001a
:10051c001e0090000000e8001040780000c0400071
:10052c005be8b7001e0090000080e80010407800e7
:10053c0080407800400020008008dd001e00900004
:10054c00630040001040780000c040005ae8b7003b
:10055c001e0090006400400010407800804078003d
:10056c00400020008008dd001e0090006500400067
:10057c001040780000c0400059e8b7002c0207007a
:10058c0000cdb3006102070040c0b3005f0207005a
:10059c005bc8bf005d0207005ac8bf005b020700c2
:1005ac0059c8bf00590207002c0207000080fa004e
:1005bc00000006000000fa001d02070000cdb30089
:1005cc00520207000040eb00500207002e02070009
:1005dc0010cdb3004d0207005902070058e8b700d0
:1005ec00320207005602070057e8b7002f02070037
:1005fc005302070056e8b70038020700170207003d
:10060c000080fa00000006000000fa000802070053
:10061c0000cdb3003d02070040c0b3003b02070011
:10062c001902070010cdb30038020700440207007e
:10063c005be8b7001d020700410207005ae8b7004b
:10064c001a0207003e02070059e8b7002302070010
:10065c00020207000080fa00000006000c00fa00fd
:10066c0056c8bf000080fb004400de00004078004c
:10067c000080fb008000eb006a09b90002017800e1
:10068c006002b9008401780003014100a30020003e
:10069c000302b800050141008202780056c8bf0071
:1006ac000081fb008001eb00f00020000100200025
:1006bc0002037800030178008001780001007800c3
:1006cc0003036300000061008000eb00c000dd004c
:1006dc00000020000001be006130b8000001710074
:1006ec008181710004004100858049000271220063
:1006fc000289b900020178006002b9008401780017
:10070c0003014100037122000300b8000101410004
:10071c0082007800008fbe00008fbe0057c8bf005b
:10072c000080fb004400de00004078000080fb00ed
:10073c008000eb006a09b900020178006002b90080
:10074c008401780003014100a30020000302b800db
:10075c00050141008202780057c8bf000081fb00f0
:10076c008001eb00f0002000010020000203780063
:10077c000301780080017800010078000303630016
:10078c00000061008000eb00c000dd0000002000d4
:10079c000001be006130b800000171008181710060
:1007ac000400410085804900420620000289b900fe
:1007bc00020178006002b900840178000301410055
:1007cc00430620000300b8000101410082007800bc
:1007dc0020079800310798002007980031079800ef
:1007ec0058c8bf000080fb004400de0000407800c9
:1007fc000080fb008000eb006a09b9000201780060
:10080c006002b9008401780003014100a3002000bc
:10081c000302b800050141008202780058c8bf00ed
:10082c000081fb008001eb00f000200001002000a3
:10083c000203780003017800800178000100780041
:10084c0003036300000061008000eb00c000dd00ca
:10085c00000020000001be006130b80000017100f2
:10086c008181710004004100858049004007980097
:10087c00510798002e009000be0090003e014000f1
:10088c00ae8148004e009000de0090000200400057
:10089c00838048007042880081428800704280004a
:1008ac00814280000080fa00000006000c00fa0073
:1008bc005bc8bf000080fb004400de0000407800f5
:1008cc000080fb008000eb006a09b900020178008f
:1008dc006002b9008401780003014100a3002000ec
:1008ec000302b80005014100820278005bc8bf001a
:1008fc000081fb008001eb00f000200001002000d3
:10090c000203780003017800800178000100780070
:10091c0003036300000061008000eb00c000dd00f9
:10092c00000020000001be006130b8000001710021
:10093c008181710004004100858049000271220010
:10094c000289b900020178006002b90084017800c4
:10095c0003014100037122000300b80001014100b2
:10096c0082007800008fbe00008fbe005ac8bf0006
:10097c000080fb004400de00004078000080fb009b
:10098c008000eb006a09b900020178006002b9002e
:10099c008401780003014100a30020000302b80089
:1009ac0005014100820278005ac8bf000081fb009b
:1009bc008001eb00f0002000010020000203780011
:1009cc0003017800800178000100780003036300c4
:1009dc00000061008000eb00c000dd000000200082
:1009ec000001be006130b80000017100818171000e
:1009fc000400410085804900420620000289b900ac
:100a0c00020178006002b900840178000301410002
:100a1c00430620000300b800010141008200780069
:100a2c00200798003107980020079800310798009c
:100a3c0059c8bf000080fb004400de000040780075
:100a4c000080fb008000eb006a09b900020178000d
:100a5c006002b9008401780003014100a30020006a
:100a6c000302b800050141008202780059c8bf009a
:100a7c000081fb008001eb00f00020000100200051
:100a8c0002037800030178008001780001007800ef
:100a9c0003036300000061008000eb00c000dd0078
:100aac00000020000001be006130b80000017100a0
:100abc008181710004004100858049004007980045
:100acc00510798002e009000be0090003e0140009f
:100adc00ae8148004e009000de0090000200400005
:100aec008380480090428800a14288009042800098
:100afc00a14280000080fa00000006000000fa000d
:100b0c000c02a9006110800090ff2f000080600093
:100b1c00601088000de2a8000d42a8000002200021
:100b2c00a01088008520a9000f42a8000e22a90061
:100b3c0071108000f0f32f000080600070108800ae
:100b4c000080fa00000006000000fa001602a9005e
:100b5c00b110800090ff2f0000806000b010880062
:100b6c0017e2a80000022000f01088008700a900fe
:100b7c001942a8001822a900c1108000f0f32f0020
:100b8c0000806000c01088000080fa0000000600a1
:100b9c000200fa00004f7800000000007110800085
:100bac0000202000008060000000e000fbff3a0005
:100bbc001e80fb00801088000080fa0000000600f8
:100bcc000200fa00004f780000000000c110800005
:100bdc0000202000008060000000e000fbff3a00d5
:100bec001e80fb00d01088000080fa000000060078
:100bfc000000fa000000000070108000610060002e
:100c0c000000e000fcff32000e22a90090108000d2
:100c1c00004078000080fa00000006000000fa0096
:100c2c0000000000c0108000610060000000e000c7
:100c3c00fcff32001822a900e01080000040780070
:100c4c000080fa00000006000200fa00000f780095
:100c5c00040037001e00780010407800ccff07001d
:100c6c001e0fe8001e007800104078000004e00021
:100c7c00f8ff3a000080fa00000006000200fa00bb
:100c8c00000f7800040037001e0078001040780038
:100c9c00cbff07001e0fe8001e0078001040780004
:100cac000004e000f8ff3a000080fa0000000600a3
:100cbc000800fa0020079800310798000000eb00ac
:100ccc00000f78000000eb001007980013003700ad
:100cdc002e009000be009000a20020000300200017
:100cec00bbfd0700004078000043b0008040780056
:100cfc00008020001e004000014878002e0090006b
:100d0c00be009000a200200003002000a0fd070000
:100d1c0020079800310798001e0fe8002e00900065
:100d2c00be009000e00f5000e08f5800e8ff3a0042
:100d3c000c0037009e00e90000802000008040007d
:100d4c00904078001e0190000082200000004100bd
:100d5c00014878001e0090000000e8001007980081
:100d6c001e0fe9009e00e90000802000008040007a
:100d7c00104078000004e000eeff3a00401f28000d
:100d8c00b1ff070000822000afff0700d0c0b30006
:100d9c007fff0700a0c0b3007dff07000000eb0041
:100dac00000f780009003700008220001e00400070
:100dbc008040eb0001487800008020001e004000bd
:100dcc008040eb00014878001e0fe8001e00780000
:100ddc00f40f5000f4ff34000080fa00000006000d
:100dec000000fa00001120000080fa00000006004c
:100dfc000000fa0007e2a90085c0a90007a2a9001b
:100e0c000762a9000742a9000722a8000702a9004f
:100e1c00f3ff07002010880000532700010020007a
:100e2c007d00070007e2a8000080fa000000060021
:100e3c000000fa0085c0a9000602a800000000000e
:100e4c002104800000002400008060000000e0000d
:100e5c00fbff32000080fa00000006000000fa00e0
:100e6c0085c0a9000642a8000000000021048000f3
:100e7c0000002400008060000000e000fbff320056
:100e8c000080fa00000006000000fa000622a8000c
:100e9c000000000030108000620060000000e000e4
:100eac00fcff3a000080fa00000006000000fa0087
:100ebc0085c0a9000682a80006a2a90000000000b7
:100ecc002104800000002400008060000000e0008d
:100edc00fbff32000080fa00000006000000fa0060
:100eec0085c0a9000682a80006a2a8000000000088
:100efc002104800000002400008060000000e0005d
:100f0c00fbff32000080fa00000006000200fa002d
:100f1c00004f780085c0a9001e00fb00101088004f
:100f2c00000000002104800000002400008060000c
:100f3c000000e000fbff32000080fa000000060019
:100f4c000000fa0085c0a9000662a800000000009d
:100f5c002104800000002400008060000000e000fc
:100f6c00fbff320000108000004078000080fa0087
:100f7c00000006000000fa00d902a9009cff07003f
:100f8c00defe07000084200019fd0700708420009d
:100f9c0048fd070000382c00911c20001e000700a3
:100fac0084fd070098fd0700acfd070040ff07001b
:100fbc003efe07003eff0700dd02a800001c2e00cd
:100fcc00410e200014000700dd02a900001c2e00b9
:0c0fdc00410e200010000700f1ff37005c
:020000040000fa
:100fe800400800000e00000002000000303333000b
:100ff8003130300000313900303132003200000029
:101008000008000040000000000000004e0800003a
:0c1018000e0000000000000000000000be
:020000040000fa
:10102400f03fb1000180b10006003500ee03090075
:1010340000000000403fb1000180b100fbff3d0013
:101044001000b000203fb00002003500008009000d
:0810540000000000000006008e
:020000040000fa
:0200000401f009
:040000000383000076
:020000040000fa
:0200000401f009
:040004003f000000b9
:020000040000fa
:0200000401f009
:04000800b2870000bb
:020000040000fa
:0200000401f009
:04001400ffffff00eb
:00000001FF
